:100000000C94E9010C9411020C9411020C9411024D
:100010000C9411020C9411020C9411020C94110214
:100020000C9411020C9411020C9411020C94110204
:100030000C9411020C9411020C9411020C941102F4
:100040000C940A070C9411020C9439060C941306B4
:100050000C9411020C9411020C9411020C941102D4
:100060000C9454070C9411026364696E6F7073757D
:1000700078585B0000000000250028002B000000DD
:100080000000240027002A000404040404040404DB
:100090000202020202020303030303030102040833
:1000A00010204080010204081020010204081020E2
:1000B000000000000000000000005F0000000000E1
:1000C000000007000700000000147F147F140000E8
:1000D00000242A7F2A120000002313086462000013
:1000E00000364955225000000000050300000000C2
:1000F000001C2241000000000041221C0000000002
:1001000000082A1C2A0800000008083E0808000011
:1001100000A06000000000000008080808080000B7
:1001200000606000000000000020100804020000D1
:10013000003E5149453E00000000427F4000000063
:1001400000625149494600000022414949360000F9
:10015000001814127F1000000027454545390000A3
:10016000003C4A49493000000001710905030000C4
:10017000003649494936000000064949291E000059
:1001800000003636000000000000AC6C00000000EB
:10019000000814224100000000141414141400007C
:1001A000004122140800000000020151090600006D
:1001B00000324979413E0000007E0909097E0000B5
:1001C000007F494949360000003E4141412200007C
:1001D000007F4141221C0000007F49494941000045
:1001E000007F090909010000003E414151720000F1
:1001F000007F0808087F000000417F4100000000E8
:10020000002040413F010000007F0814224100000F
:10021000007F404040400000007F020C027F000051
:10022000007F0408107F0000003E4141413E000075
:10023000007F090909060000003E4151215E0000CF
:10024000007F09192946000000264949493200006B
:100250000001017F01010000003F4040403F0000DD
:10026000001F2040201F0000003F4038403F00009A
:100270000063140814630000000304780403000002
:100280000061514945430000007F414100000000EA
:1002900000020408102000000041417F000000001F
:1002A00000040201020400000080808080800000C1
:1002B00000010204000000000020545454780000A3
:1002C000007F4844443800000038444428000000BF
:1002D00000384444487F000000385454541800004B
:1002E00000087E09020000000018A4A4A47C0000FD
:1002F000007F08040478000000007D00000000007A
:100300000080847D00000000007F10284400000071
:1003100000417F4000000000007C041804780000C9
:10032000007C08047C0000000038444438000000D1
:1003300000FC24241800000000182424FC00000005
:1003400000007C0804000000004854542400000011
:1003500000047F4400000000003C40407C0000009E
:10036000001C2040201C0000003C4030403C0000AD
:100370000044281028440000001CA0A07C000000BD
:10038000004464544C440000000836410000000062
:1003900000007F000000000000413608000000005F
:1003A0000002010102010000000205050200000038
:1003B00000000000230026002900000000080002C1
:1003C000010000030407000000000000000079099C
:1003D000F30C11241FBECFEFD8E0DEBFCDBF23E06A
:1003E000A0E6B1E001C01D92AB30B207E1F711E029
:1003F000A0E0B1E0E8E6F5E202C005900D92A0367B
:10040000B107D9F711E0C8EED1E004C02197FE0191
:100410000E946C0DC73ED107C9F70E94E1090C94F8
:10042000A7120C9400002091C70190919A022132EA
:1004300008F04AC08091A4018111FCCF32E03093D2
:10044000A40131E03093A3013FEF3093A201109259
:10045000A1012093A001A7EAB1E040E851E0FA0130
:100460003E2F341B321718F43D913193F9CF10927F
:100470007F0120917F01990F922B90937F019091A2
:100480007E01913061F410927E0190917F019093F2
:10049000BB009091BC0093FDF8CF95EC01C095EEA8
:1004A0009093BC009091A4019230E1F39091A2014D
:1004B0009F3F79F08091A201803241F08091A201AA
:1004C000803331F084E005C081E003C082E001C0E8
:1004D00083E01092A6011092C7011092A501089521
:1004E000CF92DF92EF92FF920F931F93CF93DF9300
:1004F0006C017A018B01C0E0D0E0CE15DF0589F0F8
:10050000D8016D918D01D601ED91FC910190F081A2
:10051000E02DC6010995892B11F47E0102C02196B8
:10052000ECCFC701DF91CF911F910F91FF90EF901A
:10053000DF90CF900895DF92EF92FF920F931F9379
:10054000CF93DF9390EE980F903608F080E298E01A
:10055000899FE0011124E12CF12CDA95DD24D3945C
:100560000CE3FE01EE0DFF1DE055FF4F1491D092FC
:10057000A50100939A021092A6011092C70160E4AF
:100580008BE992E00E94E005612F8BE992E00E94E6
:10059000E0050E9413028FEFE81AF80A98E0E916C6
:1005A000F104F9F6DF91CF911F910F91FF90EF9039
:1005B000DF9008950F931F93CF938C01C0E0F80153
:1005C000EC0FF11D8081882321F00E949B02CF5FF8
:1005D000F6CFCF911F910F910895CF93C82F81E04F
:1005E0008093A5018CE380939A021092A601109249
:1005F000C70160E88BE992E00E94E0056C2F8BE96F
:1006000092E00E94E005CF910C94130280550E9465
:10061000ED0280E00E94ED0280E10C94ED020E9468
:10062000690FEF92FF920F931F93CF93DF93EC012B
:100630007B018A0188819981009729F02A813B8179
:1006400024173507F8F4B8016F5F7F4F0E949F0EA3
:10065000009759F0998388831B830A832C813D81FD
:10066000232B81F4FC0110820DC0888199810097B1
:1006700011F00E94070E198218821D821C821B82B3
:100680001A8207C01D830C83B701888199810E945B
:10069000770FCE01DF91CF911F910F91FF90EF90D7
:1006A0000895009769F0FC0101900020E9F7319767
:1006B000AF01481B590BBC0188EC91E00C9470020F
:1006C00080E090E008958F929F92AF92BF920F9337
:1006D0001F93CF93DF93CDB7DEB7A1970FB6F894F2
:1006E000DEBF0FBECDBF19A2423008F44AE08E0132
:1006F0000F5D1F4F842E912CA12CB12CA5019401CC
:100700000E944A0DE62FB901CA0101501109EA30D1
:1007100014F4E05D01C0E95CD801EC93232B242B99
:10072000252B61F7C8010E945103A1960FB6F894DA
:10073000DEBF0FBECDBFDF91CF911F910F91BF9054
:10074000AF909F908F900895E091C801F091C901FA
:100750000190F081E02D682F88EC91E00994CF9210
:10076000DF92EF92FF92CF93DF936C01990FEE0827
:10077000FF08F7FE12C08DE20E94A403EC01662779
:100780007727CB016C197D098E099F094AE00E94E9
:1007900063037C01EC0EFD1E06C04AE0C701B601F2
:1007A0000E9463037C018EE291E00E9451038E0D52
:1007B0009F1DDF91CF91FF90EF90DF90CF90089534
:1007C000CF92DF92EF92FF92CF93DF936C01990F5C
:1007D000EE08FF08F7FE17C08DE20E94A403EC01AB
:1007E00066277727CB016C197D098E099F094AE09E
:1007F0000E9463038C0F9D1FDF91CF91FF90EF90BC
:10080000DF90CF9008954AE0C701B601DF91CF9104
:10081000FF90EF90DF90CF900C946303CF93DF9322
:10082000EC016115710559F0FB0101900020E9F719
:100830003197AF01461B570B0E9411030CC08881F2
:100840009981009711F00E94070E198218821D826B
:100850001C821B821A82CE01DF91CF910895FC0188
:10086000538D448D252F30E0842F90E0821B930B15
:10087000541710F0CF96089501970895FC01918DBB
:10088000828D981761F0828DDF01A80FB11D5D96F2
:100890008C91928D9F5F9F73928F90E008958FEF60
:1008A0009FEF0895FC01918D828D981731F0828D14
:1008B000E80FF11D858D90E008958FEF9FEF08956B
:1008C000FC01918D228D892F90E0805C9F4F821BCF
:1008D00091098F739927089588EC91E00E94600434
:1008E00021E0892B09F420E0822F0895FC01848DFA
:1008F000DF01A80FB11DA35ABF4F2C91848D90E04A
:1009000001968F739927848FA689B7892C93A08924
:10091000B1898C9180648C93938D848D981306C0DB
:100920000288F389E02D80818F7D80830895EF9286
:10093000FF920F931F93CF93DF93EC0181E0888F99
:100940009B8D8C8D981305C0E889F989808185FD80
:1009500024C0F62E0B8D10E00F5F1F4F0F73112771
:10096000E02E8C8DE8120CC00FB607FCFACFE88998
:10097000F989808185FFF5CFCE010E947604F1CF01
:100980008B8DFE01E80FF11DE35AFF4FF0820B8FB4
:10099000EA89FB898081806207C0EE89FF896083D4
:1009A000E889F98980818064808381E090E0DF912B
:1009B000CF911F910F91FF90EF900895CF93DF9308
:1009C000EC01888D8823C9F0EA89FB89808185FD47
:1009D00005C0A889B9898C9186FD0FC00FB607FCA8
:1009E000F5CF808185FFF2CFA889B9898C9185FFE9
:1009F000EDCFCE010E947604E7CFDF91CF9108952D
:100A000080E090E0892B29F00E946C0481110C9405
:100A100000000895833081F028F4813099F082300D
:100A2000A1F008958730A9F08830B9F08430D1F46E
:100A3000809180008F7D03C0809180008F778093AC
:100A40008000089584B58F7702C084B58F7D84BD02
:100A500008958091B0008F7703C08091B0008F7DA2
:100A60008093B00008953FB7F8948091030390916C
:100A70000403A0910503B091060326B5A89B05C009
:100A80002F3F19F00196A11DB11D3FBFBA2FA92F0D
:100A9000982F8827820F911DA11DB11DBC01CD018A
:100AA00042E0660F771F881F991F4A95D1F7089576
:100AB00085ED8093BC008091BC0084FDFCCF10923A
:100AC000A40108954091D902262F30E0240F311D52
:100AD00021323105DCF42091A4012430C9F4FC0159
:100AE00080E090E0861758F43091D9022191DC0122
:100AF000A954BD4FA30FB11D2C930196F3CF809144
:100B0000D902680F6093D90280E0089581E00895CA
:100B100082E00895089581E090E030916101209194
:100B20006001321710F480E090E091958195910971
:100B300008958091610190916001891730F48F5F71
:100B40008093610180E090E008958FEF9FEF08951A
:100B50008091600190E020916101821B91090895CC
:100B6000CF92DF92EF92FF920F931F93CF93DF9379
:100B70007C01262F972F8A018091A501882391F06F
:100B8000C62FD72F6E01C40ED51ECC15DD0571F012
:100B90006991D701ED91FC910190F081E02DC701A1
:100BA0000995F3CF642F822F0E946205C801DF915F
:100BB000CF911F910F91FF90EF90DF90CF9008950C
:100BC000CF93DF931F92CDB7DEB769832091A50144
:100BD0002223D1F02091C701203240F021E030E003
:100BE000FC013383228380E090E015C08091A60150
:100BF000E82FF0E0E955FE4F998190838F5F809355
:100C0000A6018093C70105C061E0CE0101960E9454
:100C1000620581E090E00F90DF91CF9108950895F3
:100C200080E090E008951F920F920FB60F9211246A
:100C30002F933F934F935F936F937F938F939F93E4
:100C4000AF93BF93EF93FF9388EC91E00E947604FB
:100C5000FF91EF91BF91AF919F918F917F916F9194
:100C60005F914F913F912F910F900FBE0F901F906A
:100C700018951F920F920FB60F9211242F938F93F6
:100C80009F93EF93FF93E091D801F091D901808178
:100C9000E091DE01F091DF0182FD12C09081809130
:100CA000E1018F5F8F732091E201821751F0E09193
:100CB000E101F0E0E853FE4F958F8093E10101C020
:100CC0008081FF91EF919F918F912F910F900FBE97
:100CD0000F901F901895CF93DF93282F30E0F901E4
:100CE000E654FC4F8491F901E456FF4FD491F90189
:100CF000E857FF4FC491CC2391F081110E940A055F
:100D0000EC2FF0E0EE0FFF1FE055FC4FA591B491E2
:100D1000EC91ED2381E090E021F480E002C080E0DE
:100D200090E0DF91CF9108951F93CF93DF93282F09
:100D300030E0F901E654FC4F8491F901E456FF4F8D
:100D4000D491F901E857FF4FC491CC23C9F0162F75
:100D500081110E940A05EC2FF0E0EE0FFF1FEC5806
:100D6000FF4FA591B4918FB7F894111105C09C91D4
:100D7000ED2FE095E92302C0EC91ED2BEC938FBFB2
:100D8000DF91CF911F9108958F929F92AF92BF9262
:100D9000CF92DF92EF92FF926B017C010E943305AC
:100DA0004B015C01C114D104E104F104F1F00E9493
:100DB0003305DC01CB0188199909AA09BB09883ED2
:100DC0009340A105B10570F321E0C21AD108E108F2
:100DD000F10888EE880E83E0981EA11CB11CC11496
:100DE000D104E104F10419F7DDCFFF90EF90DF901B
:100DF000CF90BF90AF909F908F9008952FB7F894A9
:100E00006091FF02709100038091010390910203B1
:100E10002FBF08951F920F920FB60F9211242F9398
:100E20003F938F939F93AF93BF938091FF029091D5
:100E30000003A0910103B09102033091FE0223E070
:100E4000230F2D3720F40196A11DB11D05C026E802
:100E5000230F0296A11DB11D2093FE028093FF0275
:100E600090930003A0930103B093020380910303C6
:100E700090910403A0910503B09106030196A11D72
:100E8000B11D8093030390930403A0930503B093D3
:100E90000603BF91AF919F918F913F912F910F903A
:100EA0000FBE0F901F9018951F920F920FB60F92C2
:100EB00011242F933F934F935F936F937F938F935F
:100EC0009F93AF93BF93EF93FF938091B900887F77
:100ED000803609F49CC068F5883209F45BC090F450
:100EE000803109F454C038F4882309F4F6C08830FE
:100EF00009F44DC0F6C0883109F44CC0803209F4C1
:100F00005DC0EFC0803409F468C048F4803309F450
:100F100055C0883309F0E5C08093A201D8C0803560
:100F200009F44FC0883509F45DC0883409F0D9C090
:100F3000D6C0883909F4C7C0A8F4883709F467C057
:100F400038F4883609F463C0803709F460C0C9C03A
:100F5000883809F4B8C0803909F45FC0803809F0D6
:100F6000C0C05BC0803B09F486C038F4803A09F405
:100F700066C0883A09F47FC0B4C0803C09F4A7C0B9
:100F8000883C09F4A4C0883B09F48AC0AAC08091B7
:100F90007F0110C09091A1018091A001981770F578
:100FA000E091A10181E08E0F8093A101F0E0E05873
:100FB000FE4F80818093BB0085EC86C08093A201A8
:100FC0008EC0E091A10181E08E0F8093A1018091FC
:100FD000BB00F0E0E058FE4F80839091A10180912A
:100FE000A0016EC0E091A10181E08E0F8093A1016C
:100FF0008091BB00F0E0E058FE4F80838091A30118
:1010000081116DC081E080937E0184EA61C083E03C
:101010008093A4011092FD02CFCF8091FD02803217
:1010200008F051C0E091FD0281E08E0F8093FD0237
:101030008091BB00F0E0E352FD4F8083BDCF85EC93
:101040008093BC001092A4018091FD02803230F4A4
:10105000E091FD02F0E0E352FD4F10826091FD024D
:1010600070E0E091DB02F091DC028DED92E00995F9
:101070001092FD0236C084E08093A4011092DA023F
:101080001092D902E091D702F091D802099580918F
:10109000D902811105C081E08093D9021092B70274
:1010A000E091DA0281E08E0F8093DA02F0E0E954F9
:1010B000FD4F80818093BB009091DA028091D9022C
:1010C000981708F479CF85E88093BC000AC085ECB6
:1010D0008093BC001092A40104C01092A2010E944F
:1010E0005805FF91EF91BF91AF919F918F917F91A3
:1010F0006F915F914F913F912F910F900FBE0F9085
:101100001F9018950F931F93CF93DF938C01EB01E2
:1011100081E40E94A403C8010E94E00386E50E94C6
:10112000A403CE010E94E00385E40E94A4038EE2A2
:1011300091E00E94510388EC91E0DF91CF911F91E3
:101140000F910C94DE04CF92DF92EF92FF920F93F7
:101150001F93CF93DF93CDB7DEB762970FB6F894A6
:10116000DEBF0FBECDBF88EC91E00E946004181670
:1011700019060CF0AFC007EA12E00E94FE06609369
:10118000D0017093D1018093D2019093D301E0916B
:10119000C801F091C9010284F385E02D88EC91E04B
:1011A000099597FD27C08A30910509F042C087EA6A
:1011B00092E02091A702203509F044C09E012F5FE4
:1011C0003F4F3F932F93205F3F4F3F932F932EE44A
:1011D00031E03F932F939F938F930E947E0FE98975
:1011E000FA89EE0FFF1FEE59FE4F89819A81918394
:1011F000808349C00E94FE06C090D001D090D101EA
:10120000E090D201F090D301DC01CB018C199D0953
:10121000AE09BF09C090CC01D090CD01E090CE01C5
:10122000F090CF018C159D05AE05BF0508F4AFCF3A
:10123000BECFD8018D938D01B2E0073B1B0709F0AB
:101240009CCFB5CF233529F58E010F5F1F4F1F931C
:101250000F939E012F5E3F4F3F932F9325E531E083
:101260003F932F939F938F930E947E0F29893A89F2
:1012700046E0429FC001439F900D1124B80185595B
:101280009D4F0E940E040FB6F894DEBF0FBECDBF77
:101290001AC02634C1F48E010F5F1F4F1F930F93A6
:1012A0002CE531E03F932F939F938F930E947E0F05
:1012B000B80185E692E00E940E040F900F900F9007
:1012C0000F900F900F9080E1E7EAF2E0DF011D92AE
:1012D0008A95E9F762960FB6F894DEBF0FBECDBFD0
:1012E000DF91CF911F910F91FF90EF90DF90CF9002
:1012F0000895CF93DF93E8ECF1E01382128288EE39
:1013000093E0A0E0B0E084839583A683B7832EE0CA
:1013100031E03183208325EC30E03587248724ECCD
:1013200030E03787268720EC30E0318B208B21ECB2
:1013300030E0338B228B22EC30E0358B248B26EC93
:1013400030E0378B268B118E128E138E148EEBE9C4
:10135000F2E01382128284839583A683B78380E2AE
:1013600091E091838083CBE6D2E0198218821B82C0
:101370001A821D821C8240E050E060E371E0CE01E1
:101380000E9411031F821E82198618861B861A86E8
:1013900040E050E060E371E081E792E00E941103D9
:1013A000E5E6F2E011821082138212821582148225
:1013B00040E050E060E371E0CF01DF91CF910C9409
:1013C0001103789484B5826084BD84B5816084BD46
:1013D00085B5826085BD85B5816085BD80916E00D3
:1013E000816080936E001092810080918100826004
:1013F0008093810080918100816080938100809141
:1014000080008160809380008091B100846080932F
:10141000B1008091B00081608093B00080917A002B
:10142000846080937A0080917A00826080937A0051
:1014300080917A00816080937A0080917A00806840
:1014400080937A001092C100E091D801F091D90107
:1014500082E08083E091D801F091D9011082E0917F
:10146000D401F091D5011082E091D601F091D7011D
:1014700080E180831092E001E091DC01F091DD01D8
:1014800086E08083E091DA01F091DB018081806168
:101490008083E091DA01F091DB01808188608083B4
:1014A000E091DA01F091DB01808180688083E09136
:1014B000DA01F091DB0180818F7D808310926101E0
:1014C000109260011092A6011092C7011092A4011F
:1014D00081E08093A30110927E0161E082E10E948D
:1014E000940661E083E10E9494068091B9008E7FAA
:1014F0008093B9008091B9008D7F8093B90088E412
:101500008093B80085E48093BC008EEA0E94ED02CF
:1015100065E070E080E090E00E94C4068FEA0E94DF
:10152000ED0265E070E080E090E00E94C40686EA8B
:101530000E94ED028EEA0E94ED02C0E08C2F0E9414
:101540000603D0E180E20E949B02D150D9F7CF5F21
:10155000C830A1F78FEA0E94ED0280E00E940603E6
:1015600086EA0E94ED0281E08093990280E20E9467
:10157000ED0282E00E94ED0280E00E94060381E31A
:1015800091E00E94DA0281E00E94060388E391E084
:101590000E94DA0283E00E9406038DE391E00E943C
:1015A000DA0268EE73E080E090E00E94C4060E94D8
:1015B000FE06609394027093950280939602909336
:1015C0009702E1EAF0E02491EDE8F0E084918823CD
:1015D00099F090E0880F991FFC01E258FF4FA59108
:1015E000B491FC01EC58FF4F859194918FB7F8941A
:1015F000EC91E22BEC938FBFC1E004E610E088EEA3
:10160000C82E83E0D82EE12CF12C98E5892E92E0AB
:10161000992EA12CB12C2CE3422E512C612C712C33
:101620000E94A30881E020916C0130916D01232B71
:1016300009F480E0809398028823E9F061E085E076
:101640000E94940687E00E946B06019709F0ABC0E8
:101650001DC0D09398020E94FE066093940270937E
:101660009502809396029093970260E085E00E9435
:101670009406D111E3CF0E94A308D1E080916C01C0
:1016800090916D01892B29F7D0E0E3CF80919302EF
:10169000811189C08091910290919202019690935C
:1016A000920280939102C093930280919102909153
:1016B00092020E94AF03609191027091920280E0C9
:1016C00090E00E948208809191029091920285366A
:1016D000910524F0109292021092910283E00E94F0
:1016E0006B06019709F06DC080919002811169C06D
:1016F00080918E0290918F02019690938F02809339
:101700008E02C093900280918E0290918F020E946F
:10171000AF0360918E0270918F0281E090E00E9491
:10172000820880918E0290918F028536910524F077
:1017300010928F0210928E0287E00E946B06019732
:1017400009F04DC080918D02811149C08091020144
:101750009091030101979093030180930201C0933C
:101760008D0280910201909103010E94AF0360916C
:1017700002017091030182E090E00E948208809152
:1017800002019091030197FF04C01093030100939D
:10179000020183E00E946B06019779F580918C022B
:1017A00081112BC011C187E00E946B06892B09F0C3
:1017B0007CCF80919302882309F477CF1092930213
:1017C00074CF83E00E946B06892B09F09CCF809137
:1017D0009002882309F497CF1092900294CF87E06B
:1017E0000E946B06892B09F0BCCF80918D02882363
:1017F00009F4B7CF10928D02B4CF83E00E946B063C
:10180000892B21F480918C028111EAC08091000122
:10181000909101010E94AF0360910001709101015C
:1018200083E090E00E948208809100019091010184
:1018300097FF04C010930101009300010E94FE066F
:101840002091940230919502409196025091970216
:10185000621B730B840B950BA70196010E944A0D26
:10186000209388023093890240938A0250938B021E
:101870000E94A30881E02091740130917501232B0F
:1018800009F480E080938702882309F444C00E9411
:10189000FE06609383027093840280938502909386
:1018A00086020E94A308D1E0809174019091750195
:1018B000892B09F4D0E0D09387020E94FE06209184
:1018C0008302309184024091850250918602DC01AE
:1018D000CB01821B930BA40BB50B80937F029093DB
:1018E0008002A0938102B0938202D111DACF40919D
:1018F0009402509195026091960270919702840F24
:10190000951FA61FB71F8093940290939502A093F2
:101910009602B09397028091880290918902A091DB
:101920008A02B0918B02A5019401281B390B4A0B46
:101930005B0BDA01C901893E33E09307A105B105CC
:1019400048F480937B0290937C02A0937D02B09335
:101950007E0208C010927B0210927C0210927D02DF
:1019600010927E0260917B0270917C0280917D02D8
:1019700090917E02A30192010E944A0D30937A0257
:10198000209379027093780260937702B90184E022
:1019900090E00E948208609177027091780285E061
:1019A00090E00E94820860917B0270917C0286E048
:1019B00090E00E94820860E371E085E692E00E9478
:1019C0000E040E9400052CCE80910001909101012F
:1019D00001979093010180930001C0938C0216CF70
:1019E00010928C0213CFCF93DF9380916502909178
:1019F00066020E94070ECBE6D2E08E819F810E9494
:101A0000070E88819981DF91CF910C94070E911177
:101A10000C94100D803219F089508550C8F7089544
:101A20009927882708952F923F924F925F926F9245
:101A30007F928F929F92AF92BF92CF92DF92EF925E
:101A4000FF920F931F93CF93DF93CDB7DEB7CA1BDF
:101A5000DB0B0FB6F894DEBF0FBECDBF09942A880A
:101A6000398848885F846E847D848C849B84AA84B2
:101A7000B984C884DF80EE80FD800C811B81AA813F
:101A8000B981CE0FD11D0FB6F894DEBF0FBECDBF0A
:101A9000ED010895A1E21A2EAA1BBB1BFD010DC08A
:101AA000AA1FBB1FEE1FFF1FA217B307E407F5070E
:101AB00020F0A21BB30BE40BF50B661F771F881FEA
:101AC000991F1A9469F760957095809590959B0180
:101AD000AC01BD01CF010895EE0FFF1F0590F491F9
:101AE000E02D0994CF93DF938230910510F482E0CA
:101AF00090E0E0910903F0910A0320E030E0C0E0BB
:101B0000D0E0309711F14081518148175907C0F05A
:101B10004817590761F482819381209719F09B83BC
:101B20008A832BC090930A038093090326C0211552
:101B3000310519F04217530718F49A01BE01DF016D
:101B4000EF010280F381E02DDCCF2115310509F191
:101B5000281B390B2430310590F412968D919C91FD
:101B600013976115710521F0FB019383828304C0F3
:101B700090930A0380930903FD01329644C0FD014E
:101B8000E20FF31F81939193225031092D933C93DF
:101B90003AC02091070330910803232B41F4209190
:101BA0000601309107013093080320930703209129
:101BB0000401309105012115310541F42DB73EB7DF
:101BC0004091080150910901241B350BE091070356
:101BD000F0910803E217F307A0F42E1B3F0B281720
:101BE000390778F0AC014E5F5F4F2417350748F096
:101BF0004E0F5F1F50930803409307038193919307
:101C000002C0E0E0F0E0CF01DF91CF9108950F93A3
:101C10001F93CF93DF93009709F48CC0FC01329798
:101C2000138212820091090310910A030115110514
:101C300081F420813181820F931F2091070330911D
:101C400008032817390779F5F0930803E093070391
:101C500071C0D80140E050E0AE17BF0750F41296B3
:101C60002D913C911397AD012115310509F1D90151
:101C7000F3CF9D01DA013383228360817181860F66
:101C8000971F8217930769F4EC0128813981260F89
:101C9000371F2E5F3F4F318320838A819B8193833F
:101CA0008283452B29F4F0930A03E093090342C091
:101CB0001396FC93EE931297ED01499159919E0171
:101CC000240F351FE217F30771F480819181840F8F
:101CD000951F029611969C938E9382819381139601
:101CE0009C938E931297E0E0F0E0D80112968D91CC
:101CF0009C911397009719F0F8018C01F6CF8D9104
:101D00009C9198012E5F3F4F820F931F20910703F4
:101D1000309108032817390769F4309729F4109295
:101D20000A031092090302C013821282109308035F
:101D300000930703DF91CF911F910F910895A0E0C9
:101D4000B0E0E5EAFEE00C94170DEC01009721F4F9
:101D5000CB010E94720DB8C0FC01E60FF71F9C0179
:101D600022503109E217F30708F4ACC0D9010D91F4
:101D70001C91119706171707B0F00530110508F4EC
:101D80009FC0C80104978617970708F499C00250AE
:101D90001109061B170B019311936D937C93CF01CF
:101DA0000E94070E8DC05B01A01AB10A4C01800E83
:101DB000911EA0910903B0910A0340E050E0E12C8C
:101DC000F12C109709F44AC0A815B905D1F56D900A
:101DD0007C901197630182E0C80ED11CCA14DB0409
:101DE00080F1A3014A195B096A0182E0C80ED11C87
:101DF0001296BC9012971396AC91B5E0CB16D10415
:101E000040F0B282A38351834083D9016D937C93C8
:101E10000AC00E5F1F4FC301800F911FF90191830C
:101E20008083EB2DFA2FE114F10431F0D7011396E2
:101E3000FC93EE93129744C0F0930A03E0930903D6
:101E40003FC08D919C9111974817590708F4AC0138
:101E50007D0112960D90BC91A02DB3CF8091070308
:101E60009091080388159905E1F446175707C8F4BF
:101E70008091040190910501009741F48DB79EB7C0
:101E80004091080150910901841B950BE817F9074F
:101E9000C8F4F0930803E0930703F90171836083AA
:101EA0000FC0CB010E94720D7C01009759F0A80170
:101EB000BE010E946E0FCE010E94070EC70104C032
:101EC000CE0102C080E090E0CDB7DEB7EEE00C942A
:101ED000330D81E090E0F8940C94A712FB01DC0133
:101EE00002C001900D9241505040D8F70895FB0177
:101EF000DC0101900D920020E1F70895AEE0B0E022
:101F0000E4E8FFE00C94230D85E08C838B899C89A9
:101F10009A838983AE01495E5F4F6D897E89CE01C8
:101F200001960E9417112E96E2E00C943F0D20FDC1
:101F300009C0FC0123FD05C022FF02C07383628338
:101F400051834083089544FD10C046FD10C0DB015D
:101F5000FC01AA0FBB1FEE1FFF1F1094D1F76A0FE1
:101F60007B1F8E1F9F1F31E003C033E001C034E0B0
:101F7000660F771F881F991F3150D1F7620F711DAF
:101F8000811D911D08950F931F93CF93DF938C01B3
:101F9000C8010E945012EC0197FD08C00E94070D75
:101FA000892BB1F7B801CE010E948E12CE01DF91CC
:101FB000CF911F910F910895A1E0B0E0E2EEFFE014
:101FC0000C94190D8C01C62E7A0129830E9450129F
:101FD000AC01552729814B32510521F04D32510575
:101FE00069F42068CA94C11002C080E076C0C801BC
:101FF00029830E945012298197FDF7CF322F3D7F10
:10200000D32E322F307349F5803339F5BB24BA947F
:10201000BC0C09F44EC0C80129830E9450122981CA
:1020200097FD47C0382F3F7D383569F48D2D826488
:10203000D82ECA94CA94CC20E1F1C8010E94501253
:1020400097FF0BC036C026FF04C02D2D2260D22E74
:1020500003C03D2D3261D32ECB2C812C912C540109
:1020600020ED280F283080F0D4FE04C0B8010E9473
:102070008E121CC02A3040F0D6FEF8CF2F7D3FEEE6
:10208000320F363098F727504D2DC501B4010E940C
:10209000A30F4B015C018D2D8260D82ECA94CC20F9
:1020A00059F0C8010E94501297FFDACFD1FC04C04A
:1020B0009CCF812C912C5401D7FE08C0B094A094E1
:1020C00090948094811C911CA11CB11C2D2DB501F4
:1020D000A401C7010E94970F81E02196ECE00C94C7
:1020E000350DA1E2B0E0E7E7F0E10C94170D5C01DB
:1020F0007A01CE0101966C0180E2F60111928A9577
:10210000E9F7F501838040E050E0912C712C70E0FC
:10211000A1E0B0E0F90183FC859183FE81918F01FC
:10212000982F9F01811103C080E090E07CC08E3524
:1021300019F44115510549F1E72FF0E0E417F507CF
:102140003CF48D3559F18D3219F4772001F103C03B
:10215000711001C0982E892F8695869586958601E7
:10216000080F111D892F87703D0101C0660C8A95EB
:10217000EAF7F801808186298083991559F099152D
:1021800010F49F5FE8CF9150E6CF71E004C0772450
:10219000739401C0712C4F5F5F4FBCCF772019F053
:1021A0008E8180628E83711103C09924939416C02E
:1021B000F6019E012F5D3F4F808180958193E2174C
:1021C000F307D1F7F2CFE114F10429F0F70180838E
:1021D000C70101967C016150912CF9F0C50169A3FA
:1021E0000E94501269A197FD16C0282F26952695AA
:1021F0002695F601E20FF11D208130E0AC01477019
:10220000552702C0359527954A95E2F720FDDBCF8B
:10221000B5010E948E12911087CFE114F10411F0E4
:10222000F7011082C801A196EEE00C94330D4F9295
:102230005F927F928F929F92AF92BF92CF92DF92E6
:10224000EF92FF920F931F93CF93DF931F92CDB71F
:10225000DEB76C012B015A01FC0117821682712C2A
:10226000F601F380F201F3FC8591F3FE8191382FA2
:102270002F01882309F4F3C090E039830E94070DF1
:102280003981892B21F0C6010E94C30FE9CF353275
:1022900041F4F201F3FC3591F3FE31912F01353217
:1022A00069F4C60139830E945012398197FDD5C067
:1022B0003817B1F2B6010E948E12D1C03A3239F409
:1022C000F3FC3591F3FE31912F0151E001C050E054
:1022D000420110E020ED230F2A3090F45260612F6C
:1022E00070E080E090E040E259830E94A30F162F37
:1022F000F401F3FC3591F3FE31914F015981EACF9E
:10230000052F232F240151FF03C0111102C0A7C0C4
:102310001FEF383619F03C3659F011C0F401F3FCC8
:102320002591F3FE21912F01283649F4052F0860ED
:102330000460F201F3FC2591F3FE21912F01222389
:1023400009F48DC0622F70E088E690E029830E9436
:1023500045122981892B09F482C000FD07C0F501CF
:10236000E080F180C50102965C0102C0E12CF12CF5
:102370002E3651F4F6014681578160E070E0202F3F
:10238000C7010E94970F6CCF233691F401FF11E033
:10239000C6010E94501297FD60C0E114F10429F0BB
:1023A000F7018083C70101967C01115089F751C064
:1023B0002B3559F49201A701612FC6010E947110BB
:1023C0002C01892B09F045C03FC0C60129830E941A
:1023D000C30F298197FD41C02F3659F128F42436C7
:1023E00031F1293649F127C0233769F02537F9F053
:1023F00022C0E114F10429F0F7018082C70101969F
:102400007C01115071F0C6010E9450124C0197FDE1
:1024100008C00E94070D892B61F3B601C4010E9418
:102420008E12E114F104A9F0F701108212C00062CB
:1024300003C0006101C00064202FA701612FC60105
:102440000E94DC0F811105C0F6018381807329F49D
:1024500006C000FD05CF739403CF772019F0872DB8
:1024600090E002C08FEF9FEF0F90DF91CF911F910F
:102470000F91FF90EF90DF90CF90BF90AF909F9023
:102480008F907F905F904F900895FC010590061605
:1024900021F00020D9F7C00108953197CF010895A8
:1024A000CF93DF93EC012B8120FF33C026FF0AC0BE
:1024B0002F7B2B838E819F8101969F838E838A81C0
:1024C00090E029C022FF0FC0E881F9818081082EA9
:1024D000000C990B009719F420622B831AC03196D7
:1024E000F983E8830EC0EA85FB85099597FF09C04B
:1024F0002B81019611F080E201C080E1822B8B8359
:1025000008C02E813F812F5F3F4F3F832E83992745
:1025100002C08FEF9FEFDF91CF910895FB012381E0
:1025200020FF12C026FD10C08F3F3FEF930761F0E0
:1025300082832F7D206423832681378121503109B6
:1025400037832683992708958FEF9FEF089511E031
:10255000C8EED1E004C0FE010E946C0D2196C93E78
:08256000D107C9F7F894FFCF81
:102568006400640000000B03800000000000970472
:1025780070022F04DE0460043E04520400000000D0
:10258800E005B00510068A05A80599058B050D0A12
:1025980000424F55424F55004255425500636F6DFA
:1025A8007074652061207265626F757273005025C2
:1025B8006456256400532564562573004625730028
:00000001FF
